:020000002E28A8
:0E000600123083120313FD00FD0B07280800C3
:10001400831203139F01C0309F0483161F179F1779
:1000240083122408F000F00D7010F00D7010F00D24
:10003400701070089F041F1403201F151F1D24280F
:10004400000020281F101E08F100F00183161E086E
:08005400F0040030F104080083
:10005C000730831603139C0080309F00FF3085000F
:10006C008601870101308312A4000A2070088312D4
:10007C00A2007108A300700886007008F2007108D5
:10008C00F300F30CF20CF313F30CF20CF3137208F1
:06009C00870038285028FF
:02400E004A2F37
:00000001FF
